{
  "_format": "hh-sol-artifact-1",
  "contractName": "MyERC721",
  "sourceName": "contracts/MyERC721.sol",
  "abi": [
    {
      "inputs": [
        {
          "internalType": "string",
          "name": "name_",
          "type": "string"
        },
        {
          "internalType": "string",
          "name": "symbol_",
          "type": "string"
        },
        {
          "internalType": "uint256",
          "name": "supply_",
          "type": "uint256"
        },
        {
          "internalType": "string",
          "name": "baseURI_",
          "type": "string"
        }
      ],
      "stateMutability": "nonpayable",
      "type": "constructor"
    },
    {
      "anonymous": false,
      "inputs": [
        {
          "indexed": true,
          "internalType": "address",
          "name": "owner",
          "type": "address"
        },
        {
          "indexed": true,
          "internalType": "address",
          "name": "approved",
          "type": "address"
        },
        {
          "indexed": true,
          "internalType": "uint256",
          "name": "tokenId",
          "type": "uint256"
        }
      ],
      "name": "Approval",
      "type": "event"
    },
    {
      "anonymous": false,
      "inputs": [
        {
          "indexed": true,
          "internalType": "address",
          "name": "owner",
          "type": "address"
        },
        {
          "indexed": true,
          "internalType": "address",
          "name": "operator",
          "type": "address"
        },
        {
          "indexed": false,
          "internalType": "bool",
          "name": "approved",
          "type": "bool"
        }
      ],
      "name": "ApprovalForAll",
      "type": "event"
    },
    {
      "anonymous": false,
      "inputs": [
        {
          "indexed": true,
          "internalType": "address",
          "name": "previousOwner",
          "type": "address"
        },
        {
          "indexed": true,
          "internalType": "address",
          "name": "newOwner",
          "type": "address"
        }
      ],
      "name": "OwnershipTransferred",
      "type": "event"
    },
    {
      "anonymous": false,
      "inputs": [
        {
          "indexed": true,
          "internalType": "address",
          "name": "from",
          "type": "address"
        },
        {
          "indexed": true,
          "internalType": "address",
          "name": "to",
          "type": "address"
        },
        {
          "indexed": true,
          "internalType": "uint256",
          "name": "tokenId",
          "type": "uint256"
        }
      ],
      "name": "Transfer",
      "type": "event"
    },
    {
      "inputs": [
        {
          "internalType": "address",
          "name": "to",
          "type": "address"
        },
        {
          "internalType": "uint256",
          "name": "tokenId",
          "type": "uint256"
        }
      ],
      "name": "approve",
      "outputs": [],
      "stateMutability": "nonpayable",
      "type": "function"
    },
    {
      "inputs": [
        {
          "internalType": "address",
          "name": "owner",
          "type": "address"
        }
      ],
      "name": "balanceOf",
      "outputs": [
        {
          "internalType": "uint256",
          "name": "",
          "type": "uint256"
        }
      ],
      "stateMutability": "view",
      "type": "function"
    },
    {
      "inputs": [
        {
          "internalType": "uint256",
          "name": "tokenId",
          "type": "uint256"
        }
      ],
      "name": "getApproved",
      "outputs": [
        {
          "internalType": "address",
          "name": "",
          "type": "address"
        }
      ],
      "stateMutability": "view",
      "type": "function"
    },
    {
      "inputs": [],
      "name": "getBaseURI",
      "outputs": [
        {
          "internalType": "string",
          "name": "",
          "type": "string"
        }
      ],
      "stateMutability": "view",
      "type": "function"
    },
    {
      "inputs": [],
      "name": "getTokenCounter",
      "outputs": [
        {
          "internalType": "uint256",
          "name": "",
          "type": "uint256"
        }
      ],
      "stateMutability": "view",
      "type": "function"
    },
    {
      "inputs": [
        {
          "internalType": "address",
          "name": "owner",
          "type": "address"
        },
        {
          "internalType": "address",
          "name": "operator",
          "type": "address"
        }
      ],
      "name": "isApprovedForAll",
      "outputs": [
        {
          "internalType": "bool",
          "name": "",
          "type": "bool"
        }
      ],
      "stateMutability": "view",
      "type": "function"
    },
    {
      "inputs": [],
      "name": "maxSupply",
      "outputs": [
        {
          "internalType": "uint256",
          "name": "",
          "type": "uint256"
        }
      ],
      "stateMutability": "view",
      "type": "function"
    },
    {
      "inputs": [],
      "name": "name",
      "outputs": [
        {
          "internalType": "string",
          "name": "",
          "type": "string"
        }
      ],
      "stateMutability": "view",
      "type": "function"
    },
    {
      "inputs": [],
      "name": "owner",
      "outputs": [
        {
          "internalType": "address",
          "name": "",
          "type": "address"
        }
      ],
      "stateMutability": "view",
      "type": "function"
    },
    {
      "inputs": [
        {
          "internalType": "uint256",
          "name": "tokenId",
          "type": "uint256"
        }
      ],
      "name": "ownerOf",
      "outputs": [
        {
          "internalType": "address",
          "name": "",
          "type": "address"
        }
      ],
      "stateMutability": "view",
      "type": "function"
    },
    {
      "inputs": [],
      "name": "renounceOwnership",
      "outputs": [],
      "stateMutability": "nonpayable",
      "type": "function"
    },
    {
      "inputs": [
        {
          "internalType": "address",
          "name": "to",
          "type": "address"
        }
      ],
      "name": "safeMint",
      "outputs": [],
      "stateMutability": "nonpayable",
      "type": "function"
    },
    {
      "inputs": [
        {
          "internalType": "address",
          "name": "from",
          "type": "address"
        },
        {
          "internalType": "address",
          "name": "to",
          "type": "address"
        },
        {
          "internalType": "uint256",
          "name": "tokenId",
          "type": "uint256"
        }
      ],
      "name": "safeTransferFrom",
      "outputs": [],
      "stateMutability": "nonpayable",
      "type": "function"
    },
    {
      "inputs": [
        {
          "internalType": "address",
          "name": "from",
          "type": "address"
        },
        {
          "internalType": "address",
          "name": "to",
          "type": "address"
        },
        {
          "internalType": "uint256",
          "name": "tokenId",
          "type": "uint256"
        },
        {
          "internalType": "bytes",
          "name": "data",
          "type": "bytes"
        }
      ],
      "name": "safeTransferFrom",
      "outputs": [],
      "stateMutability": "nonpayable",
      "type": "function"
    },
    {
      "inputs": [
        {
          "internalType": "address",
          "name": "operator",
          "type": "address"
        },
        {
          "internalType": "bool",
          "name": "approved",
          "type": "bool"
        }
      ],
      "name": "setApprovalForAll",
      "outputs": [],
      "stateMutability": "nonpayable",
      "type": "function"
    },
    {
      "inputs": [
        {
          "internalType": "bytes4",
          "name": "interfaceId",
          "type": "bytes4"
        }
      ],
      "name": "supportsInterface",
      "outputs": [
        {
          "internalType": "bool",
          "name": "",
          "type": "bool"
        }
      ],
      "stateMutability": "view",
      "type": "function"
    },
    {
      "inputs": [],
      "name": "symbol",
      "outputs": [
        {
          "internalType": "string",
          "name": "",
          "type": "string"
        }
      ],
      "stateMutability": "view",
      "type": "function"
    },
    {
      "inputs": [
        {
          "internalType": "uint256",
          "name": "tokenId",
          "type": "uint256"
        }
      ],
      "name": "tokenURI",
      "outputs": [
        {
          "internalType": "string",
          "name": "",
          "type": "string"
        }
      ],
      "stateMutability": "view",
      "type": "function"
    },
    {
      "inputs": [
        {
          "internalType": "uint256",
          "name": "",
          "type": "uint256"
        }
      ],
      "name": "tokens",
      "outputs": [
        {
          "internalType": "bool",
          "name": "",
          "type": "bool"
        }
      ],
      "stateMutability": "view",
      "type": "function"
    },
    {
      "inputs": [
        {
          "internalType": "address",
          "name": "from",
          "type": "address"
        },
        {
          "internalType": "address",
          "name": "to",
          "type": "address"
        },
        {
          "internalType": "uint256",
          "name": "tokenId",
          "type": "uint256"
        }
      ],
      "name": "transferFrom",
      "outputs": [],
      "stateMutability": "nonpayable",
      "type": "function"
    },
    {
      "inputs": [
        {
          "internalType": "address",
          "name": "newOwner",
          "type": "address"
        }
      ],
      "name": "transferOwnership",
      "outputs": [],
      "stateMutability": "nonpayable",
      "type": "function"
    },
    {
      "inputs": [
        {
          "internalType": "uint256[]",
          "name": "_tokenIds",
          "type": "uint256[]"
        }
      ],
      "name": "transferToVault",
      "outputs": [],
      "stateMutability": "payable",
      "type": "function"
    }
  ],
  "bytecode": "0x60806040523480156200001157600080fd5b50604051620038c0380380620038c083398181016040528101906200003791906200043a565b8383816000908051906020019062000051929190620001b2565b5080600190805190602001906200006a929190620001b2565b5050506200008d62000081620000ce60201b60201c565b620000d660201b60201c565b8160098190555080600a9080519060200190620000ac929190620001b2565b50620000c460076200019c60201b6200128a1760201c565b505050506200056e565b600033905090565b6000600660009054906101000a900473ffffffffffffffffffffffffffffffffffffffff16905081600660006101000a81548173ffffffffffffffffffffffffffffffffffffffff021916908373ffffffffffffffffffffffffffffffffffffffff1602179055508173ffffffffffffffffffffffffffffffffffffffff168173ffffffffffffffffffffffffffffffffffffffff167f8be0079c531659141344cd1fd0a4f28419497f9722a3daafe3b4186f6b6457e060405160405180910390a35050565b6001816000016000828254019250508190555050565b828054620001c09062000538565b90600052602060002090601f016020900481019282620001e4576000855562000230565b82601f10620001ff57805160ff191683800117855562000230565b8280016001018555821562000230579182015b828111156200022f57825182559160200191906001019062000212565b5b5090506200023f919062000243565b5090565b5b808211156200025e57600081600090555060010162000244565b5090565b6000604051905090565b600080fd5b600080fd5b600080fd5b600080fd5b6000601f19601f8301169050919050565b7f4e487b7100000000000000000000000000000000000000000000000000000000600052604160045260246000fd5b620002cb8262000280565b810181811067ffffffffffffffff82111715620002ed57620002ec62000291565b5b80604052505050565b60006200030262000262565b9050620003108282620002c0565b919050565b600067ffffffffffffffff82111562000333576200033262000291565b5b6200033e8262000280565b9050602081019050919050565b60005b838110156200036b5780820151818401526020810190506200034e565b838111156200037b576000848401525b50505050565b600062000398620003928462000315565b620002f6565b905082815260208101848484011115620003b757620003b66200027b565b5b620003c48482856200034b565b509392505050565b600082601f830112620003e457620003e362000276565b5b8151620003f684826020860162000381565b91505092915050565b6000819050919050565b6200041481620003ff565b81146200042057600080fd5b50565b600081519050620004348162000409565b92915050565b600080600080608085870312156200045757620004566200026c565b5b600085015167ffffffffffffffff81111562000478576200047762000271565b5b6200048687828801620003cc565b945050602085015167ffffffffffffffff811115620004aa57620004a962000271565b5b620004b887828801620003cc565b9350506040620004cb8782880162000423565b925050606085015167ffffffffffffffff811115620004ef57620004ee62000271565b5b620004fd87828801620003cc565b91505092959194509250565b7f4e487b7100000000000000000000000000000000000000000000000000000000600052602260045260246000fd5b600060028204905060018216806200055157607f821691505b6020821081141562000568576200056762000509565b5b50919050565b613342806200057e6000396000f3fe6080604052600436106101355760003560e01c8063714c5398116100ab578063a22cb4651161006f578063a22cb46514610419578063b88d4fde14610442578063c87b56dd1461046b578063d5abeb01146104a8578063e985e9c5146104d3578063f2fde38b1461051057610135565b8063714c539814610365578063715018a6146103905780637f9cffc4146103a75780638da5cb5b146103c357806395d89b41146103ee57610135565b806340d097c3116100fd57806340d097c31461023157806342842e0e1461025a5780634f64b2be146102835780636352211e146102c05780636e02007d146102fd57806370a082311461032857610135565b806301ffc9a71461013a57806306fdde0314610177578063081812fc146101a2578063095ea7b3146101df57806323b872dd14610208575b600080fd5b34801561014657600080fd5b50610161600480360381019061015c919061210f565b610539565b60405161016e9190612157565b60405180910390f35b34801561018357600080fd5b5061018c61061b565b604051610199919061220b565b60405180910390f35b3480156101ae57600080fd5b506101c960048036038101906101c49190612263565b6106ad565b6040516101d691906122d1565b60405180910390f35b3480156101eb57600080fd5b5061020660048036038101906102019190612318565b6106f3565b005b34801561021457600080fd5b5061022f600480360381019061022a9190612358565b61080b565b005b34801561023d57600080fd5b50610258600480360381019061025391906123ab565b61086b565b005b34801561026657600080fd5b50610281600480360381019061027c9190612358565b610913565b005b34801561028f57600080fd5b506102aa60048036038101906102a59190612263565b610933565b6040516102b79190612157565b60405180910390f35b3480156102cc57600080fd5b506102e760048036038101906102e29190612263565b610953565b6040516102f491906122d1565b60405180910390f35b34801561030957600080fd5b50610312610a05565b60405161031f91906123e7565b60405180910390f35b34801561033457600080fd5b5061034f600480360381019061034a91906123ab565b610a22565b60405161035c91906123e7565b60405180910390f35b34801561037157600080fd5b5061037a610ada565b604051610387919061220b565b60405180910390f35b34801561039c57600080fd5b506103a5610b2e565b005b6103c160048036038101906103bc919061254a565b610b42565b005b3480156103cf57600080fd5b506103d8610fd0565b6040516103e591906122d1565b60405180910390f35b3480156103fa57600080fd5b50610403610ffa565b604051610410919061220b565b60405180910390f35b34801561042557600080fd5b50610440600480360381019061043b91906125bf565b61108c565b005b34801561044e57600080fd5b50610469600480360381019061046491906126b4565b6110a2565b005b34801561047757600080fd5b50610492600480360381019061048d9190612263565b611104565b60405161049f919061220b565b60405180910390f35b3480156104b457600080fd5b506104bd61116c565b6040516104ca91906123e7565b60405180910390f35b3480156104df57600080fd5b506104fa60048036038101906104f59190612737565b611172565b6040516105079190612157565b60405180910390f35b34801561051c57600080fd5b50610537600480360381019061053291906123ab565b611206565b005b60007f80ac58cd000000000000000000000000000000000000000000000000000000007bffffffffffffffffffffffffffffffffffffffffffffffffffffffff1916827bffffffffffffffffffffffffffffffffffffffffffffffffffffffff1916148061060457507f5b5e139f000000000000000000000000000000000000000000000000000000007bffffffffffffffffffffffffffffffffffffffffffffffffffffffff1916827bffffffffffffffffffffffffffffffffffffffffffffffffffffffff1916145b806106145750610613826112a0565b5b9050919050565b60606000805461062a906127a6565b80601f0160208091040260200160405190810160405280929190818152602001828054610656906127a6565b80156106a35780601f10610678576101008083540402835291602001916106a3565b820191906000526020600020905b81548152906001019060200180831161068657829003601f168201915b5050505050905090565b60006106b88261130a565b6004600083815260200190815260200160002060009054906101000a900473ffffffffffffffffffffffffffffffffffffffff169050919050565b60006106fe82610953565b90508073ffffffffffffffffffffffffffffffffffffffff168373ffffffffffffffffffffffffffffffffffffffff16141561076f576040517f08c379a00000000000000000000000000000000000000000000000000000000081526004016107669061284a565b60405180910390fd5b8073ffffffffffffffffffffffffffffffffffffffff1661078e611355565b73ffffffffffffffffffffffffffffffffffffffff1614806107bd57506107bc816107b7611355565b611172565b5b6107fc576040517f08c379a00000000000000000000000000000000000000000000000000000000081526004016107f3906128dc565b60405180910390fd5b610806838361135d565b505050565b61081c610816611355565b82611416565b61085b576040517f08c379a00000000000000000000000000000000000000000000000000000000081526004016108529061296e565b60405180910390fd5b6108668383836114ab565b505050565b610873611712565b6009546108806007611790565b11156108c1576040517f08c379a00000000000000000000000000000000000000000000000000000000081526004016108b8906129da565b60405180910390fd5b60006108cd6007611790565b90506108d9600761128a565b60016008600083815260200190815260200160002060006101000a81548160ff02191690831515021790555061090f828261179e565b5050565b61092e838383604051806020016040528060008152506110a2565b505050565b60086020528060005260406000206000915054906101000a900460ff1681565b6000806002600084815260200190815260200160002060009054906101000a900473ffffffffffffffffffffffffffffffffffffffff169050600073ffffffffffffffffffffffffffffffffffffffff168173ffffffffffffffffffffffffffffffffffffffff1614156109fc576040517f08c379a00000000000000000000000000000000000000000000000000000000081526004016109f390612a46565b60405180910390fd5b80915050919050565b60006001610a136007611790565b610a1d9190612a95565b905090565b60008073ffffffffffffffffffffffffffffffffffffffff168273ffffffffffffffffffffffffffffffffffffffff161415610a93576040517f08c379a0000000000000000000000000000000000000000000000000000000008152600401610a8a90612b3b565b60405180910390fd5b600360008373ffffffffffffffffffffffffffffffffffffffff1673ffffffffffffffffffffffffffffffffffffffff168152602001908152602001600020549050919050565b60606000600a8054610aeb906127a6565b905011610b075760405180602001604052806000815250610b29565b600a604051602001610b199190612bfa565b6040516020818303038152906040525b905090565b610b36611712565b610b4060006117bc565b565b60005b8151811015610f715760086000838381518110610b6557610b64612c11565b5b6020026020010151815260200190815260200160002060009054906101000a900460ff16610bc8576040517f08c379a0000000000000000000000000000000000000000000000000000000008152600401610bbf90612c8c565b60405180910390fd5b610c4e60026000848481518110610be257610be1612c11565b5b6020026020010151815260200190815260200160002060009054906101000a900473ffffffffffffffffffffffffffffffffffffffff16731e4eed1e29b284bacf87d7c75c5798280cb40ba7848481518110610c4157610c40612c11565b5b6020026020010151611882565b610c736000838381518110610c6657610c65612c11565b5b602002602001015161135d565b60016003600060026000868681518110610c9057610c8f612c11565b5b6020026020010151815260200190815260200160002060009054906101000a900473ffffffffffffffffffffffffffffffffffffffff1673ffffffffffffffffffffffffffffffffffffffff1673ffffffffffffffffffffffffffffffffffffffff1681526020019081526020016000206000828254610d109190612a95565b92505081905550600160036000731e4eed1e29b284bacf87d7c75c5798280cb40ba773ffffffffffffffffffffffffffffffffffffffff1673ffffffffffffffffffffffffffffffffffffffff1681526020019081526020016000206000828254610d7b9190612cac565b92505081905550731e4eed1e29b284bacf87d7c75c5798280cb40ba760026000848481518110610dae57610dad612c11565b5b6020026020010151815260200190815260200160002060006101000a81548173ffffffffffffffffffffffffffffffffffffffff021916908373ffffffffffffffffffffffffffffffffffffffff160217905550818181518110610e1557610e14612c11565b5b6020026020010151731e4eed1e29b284bacf87d7c75c5798280cb40ba773ffffffffffffffffffffffffffffffffffffffff1660026000858581518110610e5f57610e5e612c11565b5b6020026020010151815260200190815260200160002060009054906101000a900473ffffffffffffffffffffffffffffffffffffffff1673ffffffffffffffffffffffffffffffffffffffff167fddf252ad1be2c89b69c2b068fc378daa952ba7f163c4a11628f55a4df523b3ef60405160405180910390a4610f5e60026000848481518110610ef257610ef1612c11565b5b6020026020010151815260200190815260200160002060009054906101000a900473ffffffffffffffffffffffffffffffffffffffff16731e4eed1e29b284bacf87d7c75c5798280cb40ba7848481518110610f5157610f50612c11565b5b6020026020010151611887565b8080610f6990612d02565b915050610b45565b50731e4eed1e29b284bacf87d7c75c5798280cb40ba773ffffffffffffffffffffffffffffffffffffffff166108fc349081150290604051600060405180830381858888f19350505050158015610fcc573d6000803e3d6000fd5b5050565b6000600660009054906101000a900473ffffffffffffffffffffffffffffffffffffffff16905090565b606060018054611009906127a6565b80601f0160208091040260200160405190810160405280929190818152602001828054611035906127a6565b80156110825780601f1061105757610100808354040283529160200191611082565b820191906000526020600020905b81548152906001019060200180831161106557829003601f168201915b5050505050905090565b61109e611097611355565b838361188c565b5050565b6110b36110ad611355565b83611416565b6110f2576040517f08c379a00000000000000000000000000000000000000000000000000000000081526004016110e99061296e565b60405180910390fd5b6110fe848484846119f9565b50505050565b606061110f8261130a565b6000611119611a55565b905060008151116111395760405180602001604052806000815250611164565b8061114384611ae7565b604051602001611154929190612d7c565b6040516020818303038152906040525b915050919050565b60095481565b6000600560008473ffffffffffffffffffffffffffffffffffffffff1673ffffffffffffffffffffffffffffffffffffffff16815260200190815260200160002060008373ffffffffffffffffffffffffffffffffffffffff1673ffffffffffffffffffffffffffffffffffffffff16815260200190815260200160002060009054906101000a900460ff16905092915050565b61120e611712565b600073ffffffffffffffffffffffffffffffffffffffff168173ffffffffffffffffffffffffffffffffffffffff16141561127e576040517f08c379a000000000000000000000000000000000000000000000000000000000815260040161127590612e12565b60405180910390fd5b611287816117bc565b50565b6001816000016000828254019250508190555050565b60007f01ffc9a7000000000000000000000000000000000000000000000000000000007bffffffffffffffffffffffffffffffffffffffffffffffffffffffff1916827bffffffffffffffffffffffffffffffffffffffffffffffffffffffff1916149050919050565b61131381611c48565b611352576040517f08c379a000000000000000000000000000000000000000000000000000000000815260040161134990612a46565b60405180910390fd5b50565b600033905090565b816004600083815260200190815260200160002060006101000a81548173ffffffffffffffffffffffffffffffffffffffff021916908373ffffffffffffffffffffffffffffffffffffffff160217905550808273ffffffffffffffffffffffffffffffffffffffff166113d083610953565b73ffffffffffffffffffffffffffffffffffffffff167f8c5be1e5ebec7d5bd14f71427d1e84f3dd0314c0f7b2291e5b200ac8c7c3b92560405160405180910390a45050565b60008061142283610953565b90508073ffffffffffffffffffffffffffffffffffffffff168473ffffffffffffffffffffffffffffffffffffffff16148061146457506114638185611172565b5b806114a257508373ffffffffffffffffffffffffffffffffffffffff1661148a846106ad565b73ffffffffffffffffffffffffffffffffffffffff16145b91505092915050565b8273ffffffffffffffffffffffffffffffffffffffff166114cb82610953565b73ffffffffffffffffffffffffffffffffffffffff1614611521576040517f08c379a000000000000000000000000000000000000000000000000000000000815260040161151890612ea4565b60405180910390fd5b600073ffffffffffffffffffffffffffffffffffffffff168273ffffffffffffffffffffffffffffffffffffffff161415611591576040517f08c379a000000000000000000000000000000000000000000000000000000000815260040161158890612f36565b60405180910390fd5b61159c838383611882565b6115a760008261135d565b6001600360008573ffffffffffffffffffffffffffffffffffffffff1673ffffffffffffffffffffffffffffffffffffffff16815260200190815260200160002060008282546115f79190612a95565b925050819055506001600360008473ffffffffffffffffffffffffffffffffffffffff1673ffffffffffffffffffffffffffffffffffffffff168152602001908152602001600020600082825461164e9190612cac565b92505081905550816002600083815260200190815260200160002060006101000a81548173ffffffffffffffffffffffffffffffffffffffff021916908373ffffffffffffffffffffffffffffffffffffffff160217905550808273ffffffffffffffffffffffffffffffffffffffff168473ffffffffffffffffffffffffffffffffffffffff167fddf252ad1be2c89b69c2b068fc378daa952ba7f163c4a11628f55a4df523b3ef60405160405180910390a461170d838383611887565b505050565b61171a611355565b73ffffffffffffffffffffffffffffffffffffffff16611738610fd0565b73ffffffffffffffffffffffffffffffffffffffff161461178e576040517f08c379a000000000000000000000000000000000000000000000000000000000815260040161178590612fa2565b60405180910390fd5b565b600081600001549050919050565b6117b8828260405180602001604052806000815250611cb4565b5050565b6000600660009054906101000a900473ffffffffffffffffffffffffffffffffffffffff16905081600660006101000a81548173ffffffffffffffffffffffffffffffffffffffff021916908373ffffffffffffffffffffffffffffffffffffffff1602179055508173ffffffffffffffffffffffffffffffffffffffff168173ffffffffffffffffffffffffffffffffffffffff167f8be0079c531659141344cd1fd0a4f28419497f9722a3daafe3b4186f6b6457e060405160405180910390a35050565b505050565b505050565b8173ffffffffffffffffffffffffffffffffffffffff168373ffffffffffffffffffffffffffffffffffffffff1614156118fb576040517f08c379a00000000000000000000000000000000000000000000000000000000081526004016118f29061300e565b60405180910390fd5b80600560008573ffffffffffffffffffffffffffffffffffffffff1673ffffffffffffffffffffffffffffffffffffffff16815260200190815260200160002060008473ffffffffffffffffffffffffffffffffffffffff1673ffffffffffffffffffffffffffffffffffffffff16815260200190815260200160002060006101000a81548160ff0219169083151502179055508173ffffffffffffffffffffffffffffffffffffffff168373ffffffffffffffffffffffffffffffffffffffff167f17307eab39ab6107e8899845ad3d59bd9653f200f220920489ca2b5937696c31836040516119ec9190612157565b60405180910390a3505050565b611a048484846114ab565b611a1084848484611d0f565b611a4f576040517f08c379a0000000000000000000000000000000000000000000000000000000008152600401611a46906130a0565b60405180910390fd5b50505050565b6060600a8054611a64906127a6565b80601f0160208091040260200160405190810160405280929190818152602001828054611a90906127a6565b8015611add5780601f10611ab257610100808354040283529160200191611add565b820191906000526020600020905b815481529060010190602001808311611ac057829003601f168201915b5050505050905090565b60606000821415611b2f576040518060400160405280600181526020017f30000000000000000000000000000000000000000000000000000000000000008152509050611c43565b600082905060005b60008214611b61578080611b4a90612d02565b915050600a82611b5a91906130ef565b9150611b37565b60008167ffffffffffffffff811115611b7d57611b7c612407565b5b6040519080825280601f01601f191660200182016040528015611baf5781602001600182028036833780820191505090505b5090505b60008514611c3c57600182611bc89190612a95565b9150600a85611bd79190613120565b6030611be39190612cac565b60f81b818381518110611bf957611bf8612c11565b5b60200101907effffffffffffffffffffffffffffffffffffffffffffffffffffffffffffff1916908160001a905350600a85611c3591906130ef565b9450611bb3565b8093505050505b919050565b60008073ffffffffffffffffffffffffffffffffffffffff166002600084815260200190815260200160002060009054906101000a900473ffffffffffffffffffffffffffffffffffffffff1673ffffffffffffffffffffffffffffffffffffffff1614159050919050565b611cbe8383611ea6565b611ccb6000848484611d0f565b611d0a576040517f08c379a0000000000000000000000000000000000000000000000000000000008152600401611d01906130a0565b60405180910390fd5b505050565b6000611d308473ffffffffffffffffffffffffffffffffffffffff16612080565b15611e99578373ffffffffffffffffffffffffffffffffffffffff1663150b7a02611d59611355565b8786866040518563ffffffff1660e01b8152600401611d7b94939291906131a6565b602060405180830381600087803b158015611d9557600080fd5b505af1925050508015611dc657506040513d601f19601f82011682018060405250810190611dc39190613207565b60015b611e49573d8060008114611df6576040519150601f19603f3d011682016040523d82523d6000602084013e611dfb565b606091505b50600081511415611e41576040517f08c379a0000000000000000000000000000000000000000000000000000000008152600401611e38906130a0565b60405180910390fd5b805181602001fd5b63150b7a0260e01b7bffffffffffffffffffffffffffffffffffffffffffffffffffffffff1916817bffffffffffffffffffffffffffffffffffffffffffffffffffffffff191614915050611e9e565b600190505b949350505050565b600073ffffffffffffffffffffffffffffffffffffffff168273ffffffffffffffffffffffffffffffffffffffff161415611f16576040517f08c379a0000000000000000000000000000000000000000000000000000000008152600401611f0d90613280565b60405180910390fd5b611f1f81611c48565b15611f5f576040517f08c379a0000000000000000000000000000000000000000000000000000000008152600401611f56906132ec565b60405180910390fd5b611f6b60008383611882565b6001600360008473ffffffffffffffffffffffffffffffffffffffff1673ffffffffffffffffffffffffffffffffffffffff1681526020019081526020016000206000828254611fbb9190612cac565b92505081905550816002600083815260200190815260200160002060006101000a81548173ffffffffffffffffffffffffffffffffffffffff021916908373ffffffffffffffffffffffffffffffffffffffff160217905550808273ffffffffffffffffffffffffffffffffffffffff16600073ffffffffffffffffffffffffffffffffffffffff167fddf252ad1be2c89b69c2b068fc378daa952ba7f163c4a11628f55a4df523b3ef60405160405180910390a461207c60008383611887565b5050565b6000808273ffffffffffffffffffffffffffffffffffffffff163b119050919050565b6000604051905090565b600080fd5b600080fd5b60007fffffffff0000000000000000000000000000000000000000000000000000000082169050919050565b6120ec816120b7565b81146120f757600080fd5b50565b600081359050612109816120e3565b92915050565b600060208284031215612125576121246120ad565b5b6000612133848285016120fa565b91505092915050565b60008115159050919050565b6121518161213c565b82525050565b600060208201905061216c6000830184612148565b92915050565b600081519050919050565b600082825260208201905092915050565b60005b838110156121ac578082015181840152602081019050612191565b838111156121bb576000848401525b50505050565b6000601f19601f8301169050919050565b60006121dd82612172565b6121e7818561217d565b93506121f781856020860161218e565b612200816121c1565b840191505092915050565b6000602082019050818103600083015261222581846121d2565b905092915050565b6000819050919050565b6122408161222d565b811461224b57600080fd5b50565b60008135905061225d81612237565b92915050565b600060208284031215612279576122786120ad565b5b60006122878482850161224e565b91505092915050565b600073ffffffffffffffffffffffffffffffffffffffff82169050919050565b60006122bb82612290565b9050919050565b6122cb816122b0565b82525050565b60006020820190506122e660008301846122c2565b92915050565b6122f5816122b0565b811461230057600080fd5b50565b600081359050612312816122ec565b92915050565b6000806040838503121561232f5761232e6120ad565b5b600061233d85828601612303565b925050602061234e8582860161224e565b9150509250929050565b600080600060608486031215612371576123706120ad565b5b600061237f86828701612303565b935050602061239086828701612303565b92505060406123a18682870161224e565b9150509250925092565b6000602082840312156123c1576123c06120ad565b5b60006123cf84828501612303565b91505092915050565b6123e18161222d565b82525050565b60006020820190506123fc60008301846123d8565b92915050565b600080fd5b7f4e487b7100000000000000000000000000000000000000000000000000000000600052604160045260246000fd5b61243f826121c1565b810181811067ffffffffffffffff8211171561245e5761245d612407565b5b80604052505050565b60006124716120a3565b905061247d8282612436565b919050565b600067ffffffffffffffff82111561249d5761249c612407565b5b602082029050602081019050919050565b600080fd5b60006124c66124c184612482565b612467565b905080838252602082019050602084028301858111156124e9576124e86124ae565b5b835b8181101561251257806124fe888261224e565b8452602084019350506020810190506124eb565b5050509392505050565b600082601f83011261253157612530612402565b5b81356125418482602086016124b3565b91505092915050565b6000602082840312156125605761255f6120ad565b5b600082013567ffffffffffffffff81111561257e5761257d6120b2565b5b61258a8482850161251c565b91505092915050565b61259c8161213c565b81146125a757600080fd5b50565b6000813590506125b981612593565b92915050565b600080604083850312156125d6576125d56120ad565b5b60006125e485828601612303565b92505060206125f5858286016125aa565b9150509250929050565b600080fd5b600067ffffffffffffffff82111561261f5761261e612407565b5b612628826121c1565b9050602081019050919050565b82818337600083830152505050565b600061265761265284612604565b612467565b905082815260208101848484011115612673576126726125ff565b5b61267e848285612635565b509392505050565b600082601f83011261269b5761269a612402565b5b81356126ab848260208601612644565b91505092915050565b600080600080608085870312156126ce576126cd6120ad565b5b60006126dc87828801612303565b94505060206126ed87828801612303565b93505060406126fe8782880161224e565b925050606085013567ffffffffffffffff81111561271f5761271e6120b2565b5b61272b87828801612686565b91505092959194509250565b6000806040838503121561274e5761274d6120ad565b5b600061275c85828601612303565b925050602061276d85828601612303565b9150509250929050565b7f4e487b7100000000000000000000000000000000000000000000000000000000600052602260045260246000fd5b600060028204905060018216806127be57607f821691505b602082108114156127d2576127d1612777565b5b50919050565b7f4552433732313a20617070726f76616c20746f2063757272656e74206f776e6560008201527f7200000000000000000000000000000000000000000000000000000000000000602082015250565b600061283460218361217d565b915061283f826127d8565b604082019050919050565b6000602082019050818103600083015261286381612827565b9050919050565b7f4552433732313a20617070726f76652063616c6c6572206973206e6f7420746f60008201527f6b656e206f776e6572206e6f7220617070726f76656420666f7220616c6c0000602082015250565b60006128c6603e8361217d565b91506128d18261286a565b604082019050919050565b600060208201905081810360008301526128f5816128b9565b9050919050565b7f4552433732313a2063616c6c6572206973206e6f7420746f6b656e206f776e6560008201527f72206e6f7220617070726f766564000000000000000000000000000000000000602082015250565b6000612958602e8361217d565b9150612963826128fc565b604082019050919050565b600060208201905081810360008301526129878161294b565b9050919050565b7f4d617820537570706c7920526561636865640000000000000000000000000000600082015250565b60006129c460128361217d565b91506129cf8261298e565b602082019050919050565b600060208201905081810360008301526129f3816129b7565b9050919050565b7f4552433732313a20696e76616c696420746f6b656e2049440000000000000000600082015250565b6000612a3060188361217d565b9150612a3b826129fa565b602082019050919050565b60006020820190508181036000830152612a5f81612a23565b9050919050565b7f4e487b7100000000000000000000000000000000000000000000000000000000600052601160045260246000fd5b6000612aa08261222d565b9150612aab8361222d565b925082821015612abe57612abd612a66565b5b828203905092915050565b7f4552433732313a2061646472657373207a65726f206973206e6f74206120766160008201527f6c6964206f776e65720000000000000000000000000000000000000000000000602082015250565b6000612b2560298361217d565b9150612b3082612ac9565b604082019050919050565b60006020820190508181036000830152612b5481612b18565b9050919050565b600081905092915050565b60008190508160005260206000209050919050565b60008154612b88816127a6565b612b928186612b5b565b94506001821660008114612bad5760018114612bbe57612bf1565b60ff19831686528186019350612bf1565b612bc785612b66565b60005b83811015612be957815481890152600182019150602081019050612bca565b838801955050505b50505092915050565b6000612c068284612b7b565b915081905092915050565b7f4e487b7100000000000000000000000000000000000000000000000000000000600052603260045260246000fd5b7f4e6f207375636820746f6b656e00000000000000000000000000000000000000600082015250565b6000612c76600d8361217d565b9150612c8182612c40565b602082019050919050565b60006020820190508181036000830152612ca581612c69565b9050919050565b6000612cb78261222d565b9150612cc28361222d565b9250827fffffffffffffffffffffffffffffffffffffffffffffffffffffffffffffffff03821115612cf757612cf6612a66565b5b828201905092915050565b6000612d0d8261222d565b91507fffffffffffffffffffffffffffffffffffffffffffffffffffffffffffffffff821415612d4057612d3f612a66565b5b600182019050919050565b6000612d5682612172565b612d608185612b5b565b9350612d7081856020860161218e565b80840191505092915050565b6000612d888285612d4b565b9150612d948284612d4b565b91508190509392505050565b7f4f776e61626c653a206e6577206f776e657220697320746865207a65726f206160008201527f6464726573730000000000000000000000000000000000000000000000000000602082015250565b6000612dfc60268361217d565b9150612e0782612da0565b604082019050919050565b60006020820190508181036000830152612e2b81612def565b9050919050565b7f4552433732313a207472616e736665722066726f6d20696e636f72726563742060008201527f6f776e6572000000000000000000000000000000000000000000000000000000602082015250565b6000612e8e60258361217d565b9150612e9982612e32565b604082019050919050565b60006020820190508181036000830152612ebd81612e81565b9050919050565b7f4552433732313a207472616e7366657220746f20746865207a65726f2061646460008201527f7265737300000000000000000000000000000000000000000000000000000000602082015250565b6000612f2060248361217d565b9150612f2b82612ec4565b604082019050919050565b60006020820190508181036000830152612f4f81612f13565b9050919050565b7f4f776e61626c653a2063616c6c6572206973206e6f7420746865206f776e6572600082015250565b6000612f8c60208361217d565b9150612f9782612f56565b602082019050919050565b60006020820190508181036000830152612fbb81612f7f565b9050919050565b7f4552433732313a20617070726f766520746f2063616c6c657200000000000000600082015250565b6000612ff860198361217d565b915061300382612fc2565b602082019050919050565b6000602082019050818103600083015261302781612feb565b9050919050565b7f4552433732313a207472616e7366657220746f206e6f6e20455243373231526560008201527f63656976657220696d706c656d656e7465720000000000000000000000000000602082015250565b600061308a60328361217d565b91506130958261302e565b604082019050919050565b600060208201905081810360008301526130b98161307d565b9050919050565b7f4e487b7100000000000000000000000000000000000000000000000000000000600052601260045260246000fd5b60006130fa8261222d565b91506131058361222d565b925082613115576131146130c0565b5b828204905092915050565b600061312b8261222d565b91506131368361222d565b925082613146576131456130c0565b5b828206905092915050565b600081519050919050565b600082825260208201905092915050565b600061317882613151565b613182818561315c565b935061319281856020860161218e565b61319b816121c1565b840191505092915050565b60006080820190506131bb60008301876122c2565b6131c860208301866122c2565b6131d560408301856123d8565b81810360608301526131e7818461316d565b905095945050505050565b600081519050613201816120e3565b92915050565b60006020828403121561321d5761321c6120ad565b5b600061322b848285016131f2565b91505092915050565b7f4552433732313a206d696e7420746f20746865207a65726f2061646472657373600082015250565b600061326a60208361217d565b915061327582613234565b602082019050919050565b600060208201905081810360008301526132998161325d565b9050919050565b7f4552433732313a20746f6b656e20616c7265616479206d696e74656400000000600082015250565b60006132d6601c8361217d565b91506132e1826132a0565b602082019050919050565b60006020820190508181036000830152613305816132c9565b905091905056fea2646970667358221220a0249a5ed3f950a7f15faea605d47162c8a1e10c5ca0a939018a30f8f418cb1c64736f6c63430008090033",
  "linkReferences": {},
  "deployedLinkReferences": {}
}